:100000000C9463000C948B000C948B000C948B006C
:100010000C948B000C948B000C948B000C948B0034
:100020000C948B000C948B000C948B000C948B0024
:100030000C948B000C948B000C948B000C948B0014
:100040000C9436040C948B000C94B0050C94FE05B3
:100050000C948B000C948B000C948B000C948B00F4
:100060000C948B000C948B000000000024002700EF
:100070002A0000000000250028002B0000000000DE
:1000800023002600290004040404040404040202DA
:100090000202020203030303030301020408102007
:1000A0004080010204081020010204081020000012
:1000B0000007000201000003040600000000000029
:1000C00000008D006A0711241FBECFEFD8E0DEBF0D
:1000D000CDBF12E0A0E0B1E0E4E9F0E102C005909C
:1000E0000D92AE36B107D9F713E0AEE6B2E001C02B
:1000F0001D92A635B107E1F710E0C6ECD0E004C0D0
:100100002297FE010E944408C23CD107C9F70E9411
:10011000C0070C9448080C940000CF92EF920F9304
:100120008EE692E06CE04BE025E004E073E0E72E21
:1001300052E0C52E0E94FD030F91EF90CF900895DD
:10014000CF93DF93EC01E0918502F0918602EF5DA1
:10015000FE4F808384E393E06C2F0E94F907209187
:100160008502309186022F5F3F4F309386022093A5
:10017000850281E02C32380709F432C1CC32D10536
:10018000C1F4809187029091880201969093880231
:1001900080938702FC01EE0FFF1FE757FD4F31836D
:1001A000208320E00D9709F421E081E0282730E04A
:1001B00019C1CA32D10529F43093A2022093A102B9
:1001C00002C02A9719F021E030E00CC1809187022B
:1001D000909188020C9709F003C140918B025091D5
:1001E0008C028091890290918A029A01281B390B16
:1001F0002730310509F0F4C020E030E0F901EF5D6F
:10020000FE4FD901A65EBE4F90818C91981709F0E0
:10021000E7C02F5F3F4F2630310581F780918D0277
:1002200090918E02841B950B0B9709F0D9C0809199
:1002300091029091920220918F0230919002821B44
:10024000930B0A9709F0CCC0809195029091960289
:100250002091930230919402821B930B0B9709F02B
:10026000BFC080919D0290919E0220919B0230918F
:100270009C02821B930B079709F0B2C08EE692E0B6
:100280000E943F03C0E0D0E01CC0FE01EF5DFE4FC6
:10029000E20FF31F8EE692E060810E94F907C13001
:1002A000D10529F48EE692E060E071E007C0C3302A
:1002B000D10531F48EE692E062E071E00E941D0803
:1002C000219620918F02309190028091910290911D
:1002D00092020697821B930BC817D907B4F2C5E0A8
:1002E000D0E013C0EF5DFE4FEC0FFD1F8EE692E0F5
:1002F00060810E94F907C830D10531F48EE692E0A2
:1003000064E071E00E941D082196E0918F02F09157
:100310009002809191029091920201978E1B9F0B07
:10032000C817D907FCF2E0919302F0919402EF5DB7
:10033000FE4F10828EE692E060E041E00E941003E2
:10034000C0E0D0E01BC0EF5DFE4FEC0FFD1F8EE65E
:1003500092E060810E94F907C230D10529F48EE64F
:1003600092E060E071E007C0C430D10531F48EE660
:1003700092E062E071E00E941D082196E0919302F4
:10038000F0919402809195029091960206978E1BAF
:100390009F0BC817D907BCF2C6E0D0E013C0EF5DD1
:1003A000FE4FEC0FFD1F8EE692E060810E94F90780
:1003B000C930D10531F48EE692E064E071E00E942C
:1003C0001D082196E0919302F0919402809195028C
:1003D0009091960201978E1B9F0BC817D907FCF2CC
:1003E00020E030E0C901DF91CF91089584E393E0EC
:1003F0000E94F10690931901809318012FEF8F3F0F
:10040000920739F464E670E080E090E00E947E0498
:1004100008950E94A000892B41F410928602109248
:100420008502109288021092870208950F931F93FD
:100430008091830260E00E941C058091160161E0BA
:100440000E941C0584E393E040E855E260E070E020
:100450000E9439060EE612E0C80160E142E020E0A9
:100460000E944703C80166E071E00E941D081092D7
:100470008A021092890210928602109285021092CE
:100480008802109287021F910F9108950F931F9376
:100490008C01FC01868160E00E945B0581E090E0B8
:1004A0000E94D704F801868161E00E945B0581E02B
:1004B00090E00E94D704F801868160E00E945B050D
:1004C00084E690E00E94D7041F910F910895CF9287
:1004D000DF92EF92FF920F931F93CF93DF93D82E6B
:1004E000C92E282F392FC9018C01C0E0D0E0E62E9B
:1004F000FF24F801878161E00E941C05B7010C2EE2
:1005000002C0759567950A94E2F76170F8018781DA
:100510000E945B0521960F5F1F4FC830D10549F738
:100520008D2D9C2D0E944602DF91CF911F910F913E
:10053000FF90EF90DF90CF900895CF92DF92EF92EF
:10054000FF920F931F93CF93DF93D82EC92E282F9E
:10055000392FC9018C01C0E0D0E0E62EFF24F8015C
:10056000878161E00E941C05B7010C2E02C07595C1
:1005700067950A94E2F76170F80187810E945B0534
:1005800021960F5F1F4FC430D10549F78D2D9C2D4B
:100590000E944602DF91CF911F910F91FF90EF9043
:1005A000DF90CF9008951F93CF93DF93EC01162F28
:1005B0008C81642F0E945B058D818F3F19F060E074
:1005C0000E945B058F8584FF05C0CE01612F0E94CC
:1005D00067020EC0612F70E084E0759567958A957B
:1005E000E1F7CE010E949D02CE01612F0E949D0283
:1005F000DF91CF911F91089541E00E94D30281E0E5
:1006000090E0089540E00E94D3020895FC016089C3
:10061000862F8460808B6C60CF010E940203089556
:10062000DF93CF93CDB7DEB728970FB6F894DEBF30
:100630000FBECDBF9C01FE013196A5E5B2E088E07A
:100640000D9001928150E1F7F9018389481710F06C
:10065000482F4150E42FF0E0EE0FFF1FEC0FFD1F7D
:100660008181680F6068C9010E94020328960FB655
:10067000F894DEBF0FBECDBFCF91DF91089561E04A
:100680000E94020380ED97E00E94D7040895CF9363
:10069000DF93EC01423018F08F8588608F874B8B99
:1006A0001C8A222329F0413019F48F8584608F87BA
:1006B00080E593EC0E94D7048C8160E00E945B058A
:1006C0008E8160E00E945B058D818F3F19F060E0B4
:1006D0000E945B056F8564FD1DC0CE0163E00E9432
:1006E0009D0284E991E10E94D704CE0163E00E945B
:1006F0009D0284E991E10E94D704CE0163E00E944B
:100700009D0286E990E00E94D704CE0162E00E943B
:100710009D0216C06062CE010E94020384E991E14D
:100720000E94D7046F856062CE010E94020386E9B1
:1007300090E00E94D7046F856062CE010E940203A0
:100740006F856062CE010E94020384E0888BCE0137
:100750000E940603CE010E943F0382E0898BCE01F6
:1007600066E00E940203DF91CF9108956F927F921D
:100770008F92AF92CF92EF920F931F93DF93CF930D
:10078000CDB7DEB73C01162F842FF30144832583B8
:100790000683E782C086A18682869D8593879E8593
:1007A00094879F8595879889968761E00E941C05AC
:1007B000F30185818F3F19F061E00E941C05F30170
:1007C000868161E00E941C05112319F0F301178650
:1007D00003C080E1F3018787C30160E141E020E0CD
:1007E0000E944703CF91DF911F910F91EF90CF901F
:1007F000AF908F907F906F9008958F92AF92CF922D
:10080000EF920F931F93CF93DF93DC01362F542F7A
:10081000722F102FAE2C8C2C13961C921E921297B6
:1008200081E592E011969C938E9300D000D0EDB7B5
:10083000FEB73196CDB7DEB71982118212821382CC
:10084000CD0161E0432F2FEF052FE72EC12E0E942F
:10085000B6030F900F900F900F90DF91CF911F91E3
:100860000F91EF90CF90AF908F9008951F920F92BD
:100870000FB60F9211242F933F938F939F93AF93B3
:10088000BF938091A7029091A802A091A902B09174
:10089000AA023091AB020196A11DB11D232F2D5F3D
:1008A0002D3720F02D570196A11DB11D2093AB02CD
:1008B0008093A7029093A802A093A902B093AA02E2
:1008C0008091A3029091A402A091A502B091A602EA
:1008D0000196A11DB11D8093A3029093A402A09341
:1008E000A502B093A602BF91AF919F918F913F91C6
:1008F0002F910F900FBE0F901F9018959B01AC0188
:100900007FB7F8948091A3029091A402A091A502D0
:10091000B091A60266B5A89B05C06F3F19F001967D
:10092000A11DB11D7FBFBA2FA92F982F8827860F31
:10093000911DA11DB11D62E0880F991FAA1FBB1F49
:100940006A95D1F7BC012DC0FFB7F8948091A3023E
:100950009091A402A091A502B091A602E6B5A89B31
:1009600005C0EF3F19F00196A11DB11DFFBFBA2FC1
:10097000A92F982F88278E0F911DA11DB11DE2E090
:10098000880F991FAA1FBB1FEA95D1F7861B970BEB
:10099000885E9340C8F2215030404040504068513A
:1009A0007C4F211531054105510571F608950197D8
:1009B00039F0880F991F880F991F02970197F1F757
:1009C0000895789484B5826084BD84B5816084BDC7
:1009D00085B5826085BD85B5816085BDEEE6F0E0B8
:1009E000808181608083E1E8F0E010828081826014
:1009F0008083808181608083E0E8F0E08081816095
:100A00008083E1EBF0E0808184608083E0EBF0E0C4
:100A1000808181608083EAE7F0E080818460808368
:100A20008081826080838081816080838081806812
:100A300080831092C1000895CF93DF93482F50E038
:100A4000CA0186569F4FFC0134914A575F4FFA0105
:100A50008491882369F190E0880F991FFC01E8597F
:100A6000FF4FA591B491FC01EE58FF4FC591D49171
:100A7000662351F42FB7F8948C91932F9095892386
:100A80008C93888189230BC0623061F42FB7F8946E
:100A90008C91932F909589238C938881832B8883C5
:100AA0002FBF06C09FB7F8948C91832B8C939FBF68
:100AB000DF91CF910895482F50E0CA0182559F4F92
:100AC000FC012491CA0186569F4FFC0194914A571C
:100AD0005F4FFA013491332309F440C0222351F1CE
:100AE000233071F0243028F42130A1F0223011F5A8
:100AF00014C02630B1F02730C1F02430D9F404C03E
:100B0000809180008F7703C0809180008F7D8093DB
:100B1000800010C084B58F7702C084B58F7D84BDFE
:100B200009C08091B0008F7703C08091B0008F7DA5
:100B30008093B000E32FF0E0EE0FFF1FEE58FF4F61
:100B4000A591B4912FB7F894662321F48C919095D8
:100B5000892302C08C91892B8C932FBF089508950F
:100B60001F920F920FB60F9211242F933F934F9322
:100B70008F939F93EF93FF938091C00082FD1DC0E0
:100B80004091C6002091EC023091ED022F5F3F4F63
:100B90002F7330708091EE029091EF022817390781
:100BA00071F0E091EC02F091ED02E455FD4F4083CD
:100BB0003093ED022093EC0202C08091C600FF91B9
:100BC000EF919F918F914F913F912F910F900FBE79
:100BD0000F901F901895E0914003F0914103E05C65
:100BE000FF4F8191919120813181821B930B8F73F3
:100BF0009070892B11F00E94AF0508951F920F92FB
:100C00000FB60F9211242F933F938F939F93EF93DF
:100C1000FF93209130033091310380913203909102
:100C200033032817390731F48091C1008F7D8093F9
:100C3000C10014C0E0913203F0913303E051FD4F45
:100C40002081809132039091330301968F739070CD
:100C500090933303809332032093C600FF91EF916A
:100C60009F918F913F912F910F900FBE0F901F90EA
:100C70001895AF92BF92DF92EF92FF920F931F935E
:100C8000CF93DF93EC017A018B01DD24403081EEBC
:100C9000580780E0680780E0780711F0DD24D394DE
:100CA00091E0A92EB12CEC89FD89DD2069F0C50108
:100CB00008A002C0880F991F0A94E2F7808360E0C1
:100CC00079E08DE390E005C0108260E874E88EE181
:100CD00090E0A80197010E94200821503040404038
:100CE0005040569547953795279580E12030380735
:100CF00020F0DD2011F0DD24D6CFE889F98930839A
:100D0000EA89FB89208319A2EE89FF89408121E0CD
:100D100030E0C9010C8C02C0880F991F0A94E2F7D9
:100D2000482B4083EE89FF894081C9010D8C02C0A8
:100D3000880F991F0A94E2F7482B4083EE89FF89B8
:100D40004081C9010E8C02C0880F991F0A94E2F7F6
:100D5000482B4083EE89FF8980810F8C02C0220FCF
:100D6000331F0A94E2F7209528232083DF91CF9147
:100D70001F910F91FF90EF90DF90BF90AF9008957B
:100D8000DC011C96ED91FC911D97E05CFF4F2191D9
:100D9000319180819181281B390B2F733070C901EB
:100DA0000895DC011C96ED91FC911D97E05CFF4FCE
:100DB00020813181E054F040DF01AE5BBF4F8D9167
:100DC0009C9111972817390719F42FEF3FEF07C0AF
:100DD0008D919C91E80FF91F8081282F30E0C90187
:100DE0000895DC011C96ED91FC911D97E05CFF4F8E
:100DF00020813181E054F040DF01AE5BBF4F8D9127
:100E00009C9111972817390719F42FEF3FEF10C065
:100E10008D919C911197E80FF91F20818D919C91E4
:100E2000119701968F73907011969C938E9330E07A
:100E3000C9010895DC0191968C919197882339F02E
:100E40005496ED91FC915597808186FFF9CF91964C
:100E50001C920895CF93DF93EC01EE85FF85E05C53
:100E6000FF4F20813181E054F0402F5F3F4F2F73BF
:100E70003070DF01AE5BBF4F8D919C9111972817A9
:100E80003907D1F3E05CFF4F80819181E054F0405D
:100E9000E80FF91F6083EE85FF85E05CFF4F31832B
:100EA0002083EE89FF89208181E090E00F8C02C0D1
:100EB000880F991F0A94E2F7282B208381E089A3E9
:100EC000EC89FD8980818064808381E090E0DF91FE
:100ED000CF910895109237031092360388EE93E075
:100EE000A0E0B0E08093380390933903A0933A03D5
:100EF000B0933B0381E692E09093350380933403F3
:100F00008CEA92E0909341038093400380EF92E05B
:100F1000909343038093420385EC90E090934503C4
:100F20008093440384EC90E09093470380934603BE
:100F300080EC90E0909349038093480381EC90E02B
:100F400090934B0380934A0382EC90E090934D037F
:100F500080934C0386EC90E090934F0380934E0374
:100F600084E08093500383E08093510387E0809373
:100F7000520385E08093530381E0809354030895E6
:100F8000CF93DF930E94E1040E941602CBEED5E0DE
:100F90000E94F6012097E1F30E94EB05F9CFCF9272
:100FA000DF92EF92FF920F931F93CF93DF937C0119
:100FB0006B018A01C0E0D0E00FC0D6016D916D01D8
:100FC000D701ED91FC910190F081E02DC7010995C9
:100FD000C80FD91F015010400115110571F7CE013E
:100FE000DF91CF911F910F91FF90EF90DF90CF9005
:100FF0000895DC01ED91FC910190F081E02D0995BF
:101000000895CF93DF93EC016115710519F420E089
:1010100030E00FC0DB010D900020E9F71197A61B0F
:10102000B70BE881F9810280F381E02DAD010995CC
:101030009C01C901DF91CF9108950E940108089594
:10104000A1E21A2EAA1BBB1BFD010DC0AA1FBB1FCC
:10105000EE1FFF1FA217B307E407F50720F0A21B3E
:10106000B30BE40BF50B661F771F881F991F1A94AB
:1010700069F760957095809590959B01AC01BD01D5
:10108000CF010895EE0FFF1F0590F491E02D099414
:04109000F894FFCF02
:101094006F002C00270057616974696E6720666FC2
:1010A4007220475053000100FFFF244750524D4324
:1010B400000000000000000000000000000000002C
:1010C400000000000000000000000000000000001C
:1010D400000000000000000000000000000000000C
:1010E40000000000000000000000000000000000FC
:1010F40000000000000000000000000000000000EC
:1011040000000000000000000000000000000000DB
:1011140000000000000000000000000000000000CB
:1011240000000000000000000000000000000000BB
:1011340000000000000000000000000000000000AB
:10114400000000000000000000000000000000009B
:10115400000000000000000000000000000000008B
:10116400000000000000000000000000000000007B
:10117400000000000000000000000000000000006B
:10118400000000000000000000000000000000005B
:10119400000000000000000000000000000000004B
:1011A400000000000000000000000000000000003B
:1011B400000000000000000000000000000000002B
:1011C400000000000000000000000000000000001B
:1011D400000000000000000000000000000000000B
:1011E40000FC02CF0700004000140054000000007F
:0E11F400002A07CF07C006F106D1061A070031
:00000001FF
